:100000000C945C000C9479000C9479000C947900A9
:100010000C9479000C9479000C9479000C9479007C
:100020000C9479000C9479000C9479000C9479006C
:100030000C9479000C9479000C9479000C9479005C
:100040000C9442010C9479000C9479000C94790082
:100050000C9479000C9479000C9479000C9479003C
:100060000C9479000C947900000000080002010053
:100070000003040700000000000000000000000072
:10008000250028002B0000000000240027002A0083
:10009000040404040404040402020202020203032E
:1000A0000303030301020408102040800102040836
:1000B000102001020408102011241FBECFEFD8E049
:1000C000DEBFCDBF11E0A0E0B1E0E4E4F5E002C0A6
:1000D00005900D92A432B107D9F721E0A4E2B1E076
:1000E00001C01D92AD32B207E1F70E948C010C9461
:1000F000A0020C94000090E0FC01EC55FF4F24910D
:10010000FC01E057FF4F8491882399F090E0880F1D
:10011000991FFC01EA57FF4FA591B491FC01E458E7
:10012000FF4F859194918FB7F894EC91E22BEC936B
:100130008FBF089590E0FC01E859FF4F3491FC0116
:10014000EC55FF4F2491FC01E057FF4FE491EE2363
:1001500009F43BC0332339F1333091F038F43130B6
:10016000A9F0323001F584B58F7D12C0373091F09F
:100170003830A1F03430B9F4809180008F7D03C015
:10018000809180008F77809380000DC084B58F7739
:1001900084BD09C08091B0008F7703C08091B0000A
:1001A0008F7D8093B000F0E0EE0FFF1FE458FF4F0B
:1001B000A591B4918FB7F894EC91611103C020958B
:1001C0002E2301C02E2B2C938FBF08953FB7F89498
:1001D0008091290190912A01A0912B01B0912C01CD
:1001E00026B5A89B05C02F3F19F00196A11DB11D92
:1001F0003FBFBA2FA92F982F8827820F911DA11DCD
:10020000B11DBC01CD0142E0660F771F881F991F09
:100210004A95D1F708958F929F92AF92BF92CF9255
:10022000DF92EF92FF920E94E6004B015C0184E6B0
:10023000C82ED12CE12CF12C0E94E600DC01CB0170
:1002400088199909AA09BB09883E9340A105B105FF
:1002500058F021E0C21AD108E108F10888EE880EB2
:1002600083E0981EA11CB11CC114D104E104F10467
:1002700019F7FF90EF90DF90CF90BF90AF909F90D5
:100280008F9008951F920F920FB60F9211242F9303
:100290003F938F939F93AF93BF938091250190914C
:1002A0002601A0912701B09128013091240123E07B
:1002B000230F2D3720F40196A11DB11D05C026E89E
:1002C000230F0296A11DB11D2093240180932501C7
:1002D00090932601A0932701B093280180912901D2
:1002E00090912A01A0912B01B0912C010196A11DA2
:1002F000B11D8093290190932A01A0932B01B09303
:100300002C01BF91AF919F918F913F912F910F90B1
:100310000FBE0F901F901895789484B5826084BDAD
:1003200084B5816084BD85B5826085BD85B58160F9
:1003300085BD80916E00816080936E001092810077
:100340008091810082608093810080918100816032
:1003500080938100809180008160809380008091F3
:10036000B10084608093B1008091B000816080937F
:10037000B00080917A00846080937A0080917A0046
:10038000826080937A0080917A00816080937A0005
:1003900080917A00806880937A001092C10000E01A
:1003A00011E0E8E0EE2EE1E0FE2EC0E1D1E0888130
:1003B00022960E947B00F7018081F2E0EF0EF11C93
:1003C0000E947B00F80180810E5F1F4F0E947B001E
:1003D000F1E0C831DF0759F764E6262E312C7AE0C8
:1003E000C72ED12C50E0A52E50E0B52EC0E0D0E0B5
:1003F000CE01B1010E9478029B01CE01B6010E949C
:1004000078027C01CB01B6010E9478024C0140E1E8
:10041000442E41E0542E00E010E0F901E85EFE4F6A
:100420006080712CF2018081F2E04F0E511CB3010B
:10043000002E02C0759567950A94E2F761707727E0
:100440000E949A000F5F1F4F0430110559F798E082
:10045000692E91E0792E00E010E0F401E85EFE4F95
:100460008080912CF3018081F2E06F0E711CB40149
:10047000002E02C0759567950A94E2F761707727A0
:100480000E949A000F5F1F4F0430110559F780E05A
:10049000882E81E0982E00E010E0F701E85EFE4F24
:1004A000E080F12CF4018081F2E08F0E911CB70105
:1004B000002E02C0759567950A94E2F76170772760
:1004C0000E949A000F5F1F4F0430110559F70E94D8
:1004D0000B012196C83E83E0D80709F089CF0E941E
:1004E0000B01A114B10409F481CF0E9400007ACF5E
:1004F00097FB072E16F4009407D077FD09D00E94D1
:100500008C0207FC05D03EF4909581959F4F08958D
:10051000709561957F4F0895AA1BBB1B51E107C0E1
:10052000AA1FBB1FA617B70710F0A61BB70B881F83
:10053000991F5A95A9F780959095BC01CD01089512
:04054000F894FFCF5D
:10054400050004000300020009000800070006007B
:100554000D000C000B000A0000010203040506074D
:0405640008090F0073
:00000001FF
